{
  "contractName": "Exchange",
  "abi": [
    {
      "inputs": [
        {
          "internalType": "address",
          "name": "_feeAccount",
          "type": "address"
        },
        {
          "internalType": "uint256",
          "name": "_feePercent",
          "type": "uint256"
        }
      ],
      "payable": false,
      "stateMutability": "nonpayable",
      "type": "constructor"
    },
    {
      "anonymous": false,
      "inputs": [
        {
          "indexed": false,
          "internalType": "address",
          "name": "token",
          "type": "address"
        },
        {
          "indexed": false,
          "internalType": "address",
          "name": "user",
          "type": "address"
        },
        {
          "indexed": false,
          "internalType": "uint256",
          "name": "amount",
          "type": "uint256"
        },
        {
          "indexed": false,
          "internalType": "uint256",
          "name": "balance",
          "type": "uint256"
        }
      ],
      "name": "Deposit",
      "type": "event"
    },
    {
      "anonymous": false,
      "inputs": [
        {
          "indexed": false,
          "internalType": "uint256",
          "name": "id",
          "type": "uint256"
        },
        {
          "indexed": false,
          "internalType": "address",
          "name": "user",
          "type": "address"
        },
        {
          "indexed": false,
          "internalType": "address",
          "name": "tokenGet",
          "type": "address"
        },
        {
          "indexed": false,
          "internalType": "uint256",
          "name": "amountGet",
          "type": "uint256"
        },
        {
          "indexed": false,
          "internalType": "address",
          "name": "tokenGive",
          "type": "address"
        },
        {
          "indexed": false,
          "internalType": "uint256",
          "name": "amountGive",
          "type": "uint256"
        },
        {
          "indexed": false,
          "internalType": "uint256",
          "name": "timestamp",
          "type": "uint256"
        }
      ],
      "name": "Order",
      "type": "event"
    },
    {
      "anonymous": false,
      "inputs": [
        {
          "indexed": false,
          "internalType": "address",
          "name": "token",
          "type": "address"
        },
        {
          "indexed": false,
          "internalType": "address",
          "name": "user",
          "type": "address"
        },
        {
          "indexed": false,
          "internalType": "uint256",
          "name": "amount",
          "type": "uint256"
        },
        {
          "indexed": false,
          "internalType": "uint256",
          "name": "balance",
          "type": "uint256"
        }
      ],
      "name": "Withdraw",
      "type": "event"
    },
    {
      "payable": false,
      "stateMutability": "nonpayable",
      "type": "fallback"
    },
    {
      "constant": true,
      "inputs": [],
      "name": "feeAccount",
      "outputs": [
        {
          "internalType": "address",
          "name": "",
          "type": "address"
        }
      ],
      "payable": false,
      "stateMutability": "view",
      "type": "function"
    },
    {
      "constant": true,
      "inputs": [],
      "name": "feePercent",
      "outputs": [
        {
          "internalType": "uint256",
          "name": "",
          "type": "uint256"
        }
      ],
      "payable": false,
      "stateMutability": "view",
      "type": "function"
    },
    {
      "constant": true,
      "inputs": [],
      "name": "orderCount",
      "outputs": [
        {
          "internalType": "uint256",
          "name": "",
          "type": "uint256"
        }
      ],
      "payable": false,
      "stateMutability": "view",
      "type": "function"
    },
    {
      "constant": true,
      "inputs": [
        {
          "internalType": "uint256",
          "name": "",
          "type": "uint256"
        }
      ],
      "name": "orders",
      "outputs": [
        {
          "internalType": "uint256",
          "name": "id",
          "type": "uint256"
        },
        {
          "internalType": "address",
          "name": "user",
          "type": "address"
        },
        {
          "internalType": "address",
          "name": "tokenGet",
          "type": "address"
        },
        {
          "internalType": "uint256",
          "name": "amountGet",
          "type": "uint256"
        },
        {
          "internalType": "address",
          "name": "tokenGive",
          "type": "address"
        },
        {
          "internalType": "uint256",
          "name": "amountGive",
          "type": "uint256"
        },
        {
          "internalType": "uint256",
          "name": "timestamp",
          "type": "uint256"
        }
      ],
      "payable": false,
      "stateMutability": "view",
      "type": "function"
    },
    {
      "constant": true,
      "inputs": [
        {
          "internalType": "address",
          "name": "",
          "type": "address"
        },
        {
          "internalType": "address",
          "name": "",
          "type": "address"
        }
      ],
      "name": "tokens",
      "outputs": [
        {
          "internalType": "uint256",
          "name": "",
          "type": "uint256"
        }
      ],
      "payable": false,
      "stateMutability": "view",
      "type": "function"
    },
    {
      "constant": false,
      "inputs": [],
      "name": "depositEther",
      "outputs": [],
      "payable": true,
      "stateMutability": "payable",
      "type": "function"
    },
    {
      "constant": false,
      "inputs": [
        {
          "internalType": "uint256",
          "name": "_amount",
          "type": "uint256"
        }
      ],
      "name": "withdrawEther",
      "outputs": [],
      "payable": false,
      "stateMutability": "nonpayable",
      "type": "function"
    },
    {
      "constant": false,
      "inputs": [
        {
          "internalType": "address",
          "name": "_token",
          "type": "address"
        },
        {
          "internalType": "uint256",
          "name": "_amount",
          "type": "uint256"
        }
      ],
      "name": "depositToken",
      "outputs": [],
      "payable": false,
      "stateMutability": "nonpayable",
      "type": "function"
    },
    {
      "constant": false,
      "inputs": [
        {
          "internalType": "address",
          "name": "_token",
          "type": "address"
        },
        {
          "internalType": "uint256",
          "name": "_amount",
          "type": "uint256"
        }
      ],
      "name": "withdrawToken",
      "outputs": [],
      "payable": false,
      "stateMutability": "nonpayable",
      "type": "function"
    },
    {
      "constant": true,
      "inputs": [
        {
          "internalType": "address",
          "name": "_token",
          "type": "address"
        },
        {
          "internalType": "address",
          "name": "_user",
          "type": "address"
        }
      ],
      "name": "balanceOf",
      "outputs": [
        {
          "internalType": "uint256",
          "name": "",
          "type": "uint256"
        }
      ],
      "payable": false,
      "stateMutability": "view",
      "type": "function"
    },
    {
      "constant": false,
      "inputs": [
        {
          "internalType": "address",
          "name": "_tokenGet",
          "type": "address"
        },
        {
          "internalType": "uint256",
          "name": "_amountGet",
          "type": "uint256"
        },
        {
          "internalType": "address",
          "name": "_tokenGive",
          "type": "address"
        },
        {
          "internalType": "uint256",
          "name": "_amountGive",
          "type": "uint256"
        }
      ],
      "name": "makeOrder",
      "outputs": [],
      "payable": false,
      "stateMutability": "nonpayable",
      "type": "function"
    }
  ],
  "bytecode": "0x608060405234801561001057600080fd5b506040516116843803806116848339818101604052604081101561003357600080fd5b810190808051906020019092919080519060200190929190505050816000806101000a81548173ffffffffffffffffffffffffffffffffffffffff021916908373ffffffffffffffffffffffffffffffffffffffff1602179055508060018190555050506115de806100a66000396000f3fe60806040526004361061009c5760003560e01c80637fd6f15c116100645780637fd6f15c1461024b57806398ea5fca146102765780639a5c90aa146102805780639e281a9814610305578063a85c38ef14610360578063f7888aec1461045d5761009c565b80632453ffa8146100ae578063338b5dea146100d95780633bed33ce14610134578063508493bc1461016f57806365e17c9d146101f4575b3480156100a857600080fd5b50600080fd5b3480156100ba57600080fd5b506100c36104e2565b6040518082815260200191505060405180910390f35b3480156100e557600080fd5b50610132600480360360408110156100fc57600080fd5b81019080803573ffffffffffffffffffffffffffffffffffffffff169060200190929190803590602001909291905050506104e8565b005b34801561014057600080fd5b5061016d6004803603602081101561015757600080fd5b8101908080359060200190929190505050610857565b005b34801561017b57600080fd5b506101de6004803603604081101561019257600080fd5b81019080803573ffffffffffffffffffffffffffffffffffffffff169060200190929190803573ffffffffffffffffffffffffffffffffffffffff169060200190929190505050610b5d565b6040518082815260200191505060405180910390f35b34801561020057600080fd5b50610209610b82565b604051808273ffffffffffffffffffffffffffffffffffffffff1673ffffffffffffffffffffffffffffffffffffffff16815260200191505060405180910390f35b34801561025757600080fd5b50610260610ba7565b6040518082815260200191505060405180910390f35b61027e610bad565b005b34801561028c57600080fd5b50610303600480360360808110156102a357600080fd5b81019080803573ffffffffffffffffffffffffffffffffffffffff16906020019092919080359060200190929190803573ffffffffffffffffffffffffffffffffffffffff16906020019092919080359060200190929190505050610de2565b005b34801561031157600080fd5b5061035e6004803603604081101561032857600080fd5b81019080803573ffffffffffffffffffffffffffffffffffffffff1690602001909291908035906020019092919050505061107d565b005b34801561036c57600080fd5b506103996004803603602081101561038357600080fd5b8101908080359060200190929190505050611441565b604051808881526020018773ffffffffffffffffffffffffffffffffffffffff1673ffffffffffffffffffffffffffffffffffffffff1681526020018673ffffffffffffffffffffffffffffffffffffffff1673ffffffffffffffffffffffffffffffffffffffff1681526020018581526020018473ffffffffffffffffffffffffffffffffffffffff1673ffffffffffffffffffffffffffffffffffffffff16815260200183815260200182815260200197505050505050505060405180910390f35b34801561046957600080fd5b506104cc6004803603604081101561048057600080fd5b81019080803573ffffffffffffffffffffffffffffffffffffffff169060200190929190803573ffffffffffffffffffffffffffffffffffffffff1690602001909291905050506114e3565b6040518082815260200191505060405180910390f35b60045481565b600073ffffffffffffffffffffffffffffffffffffffff168273ffffffffffffffffffffffffffffffffffffffff16141561052257600080fd5b8173ffffffffffffffffffffffffffffffffffffffff166323b872dd3330846040518463ffffffff1660e01b8152600401808473ffffffffffffffffffffffffffffffffffffffff1673ffffffffffffffffffffffffffffffffffffffff1681526020018373ffffffffffffffffffffffffffffffffffffffff1673ffffffffffffffffffffffffffffffffffffffff1681526020018281526020019350505050602060405180830381600087803b1580156105dd57600080fd5b505af11580156105f1573d6000803e3d6000fd5b505050506040513d602081101561060757600080fd5b810190808051906020019092919050505061062157600080fd5b6106b081600260008573ffffffffffffffffffffffffffffffffffffffff1673ffffffffffffffffffffffffffffffffffffffff16815260200190815260200160002060003373ffffffffffffffffffffffffffffffffffffffff1673ffffffffffffffffffffffffffffffffffffffff1681526020019081526020016000205461156a90919063ffffffff16565b600260008473ffffffffffffffffffffffffffffffffffffffff1673ffffffffffffffffffffffffffffffffffffffff16815260200190815260200160002060003373ffffffffffffffffffffffffffffffffffffffff1673ffffffffffffffffffffffffffffffffffffffff168152602001908152602001600020819055507fdcbc1c05240f31ff3ad067ef1ee35ce4997762752e3a095284754544f4c709d7823383600260008773ffffffffffffffffffffffffffffffffffffffff1673ffffffffffffffffffffffffffffffffffffffff16815260200190815260200160002060003373ffffffffffffffffffffffffffffffffffffffff1673ffffffffffffffffffffffffffffffffffffffff16815260200190815260200160002054604051808573ffffffffffffffffffffffffffffffffffffffff1673ffffffffffffffffffffffffffffffffffffffff1681526020018473ffffffffffffffffffffffffffffffffffffffff1673ffffffffffffffffffffffffffffffffffffffff16815260200183815260200182815260200194505050505060405180910390a15050565b80600260008073ffffffffffffffffffffffffffffffffffffffff1673ffffffffffffffffffffffffffffffffffffffff16815260200190815260200160002060003373ffffffffffffffffffffffffffffffffffffffff1673ffffffffffffffffffffffffffffffffffffffff1681526020019081526020016000205410156108e057600080fd5b61096f81600260008073ffffffffffffffffffffffffffffffffffffffff1673ffffffffffffffffffffffffffffffffffffffff16815260200190815260200160002060003373ffffffffffffffffffffffffffffffffffffffff1673ffffffffffffffffffffffffffffffffffffffff1681526020019081526020016000205461158990919063ffffffff16565b600260008073ffffffffffffffffffffffffffffffffffffffff1673ffffffffffffffffffffffffffffffffffffffff16815260200190815260200160002060003373ffffffffffffffffffffffffffffffffffffffff1673ffffffffffffffffffffffffffffffffffffffff168152602001908152602001600020819055503373ffffffffffffffffffffffffffffffffffffffff166108fc829081150290604051600060405180830381858888f19350505050158015610a35573d6000803e3d6000fd5b507ff341246adaac6f497bc2a656f546ab9e182111d630394f0c57c710a59a2cb56760003383600260008073ffffffffffffffffffffffffffffffffffffffff1673ffffffffffffffffffffffffffffffffffffffff16815260200190815260200160002060003373ffffffffffffffffffffffffffffffffffffffff1673ffffffffffffffffffffffffffffffffffffffff16815260200190815260200160002054604051808573ffffffffffffffffffffffffffffffffffffffff1673ffffffffffffffffffffffffffffffffffffffff1681526020018473ffffffffffffffffffffffffffffffffffffffff1673ffffffffffffffffffffffffffffffffffffffff16815260200183815260200182815260200194505050505060405180910390a150565b6002602052816000526040600020602052806000526040600020600091509150505481565b6000809054906101000a900473ffffffffffffffffffffffffffffffffffffffff1681565b60015481565b610c3c34600260008073ffffffffffffffffffffffffffffffffffffffff1673ffffffffffffffffffffffffffffffffffffffff16815260200190815260200160002060003373ffffffffffffffffffffffffffffffffffffffff1673ffffffffffffffffffffffffffffffffffffffff1681526020019081526020016000205461156a90919063ffffffff16565b600260008073ffffffffffffffffffffffffffffffffffffffff1673ffffffffffffffffffffffffffffffffffffffff16815260200190815260200160002060003373ffffffffffffffffffffffffffffffffffffffff1673ffffffffffffffffffffffffffffffffffffffff168152602001908152602001600020819055507fdcbc1c05240f31ff3ad067ef1ee35ce4997762752e3a095284754544f4c709d760003334600260008073ffffffffffffffffffffffffffffffffffffffff1673ffffffffffffffffffffffffffffffffffffffff16815260200190815260200160002060003373ffffffffffffffffffffffffffffffffffffffff1673ffffffffffffffffffffffffffffffffffffffff16815260200190815260200160002054604051808573ffffffffffffffffffffffffffffffffffffffff1673ffffffffffffffffffffffffffffffffffffffff1681526020018473ffffffffffffffffffffffffffffffffffffffff1673ffffffffffffffffffffffffffffffffffffffff16815260200183815260200182815260200194505050505060405180910390a1565b610df8600160045461156a90919063ffffffff16565b6004819055506040518060e0016040528060045481526020013373ffffffffffffffffffffffffffffffffffffffff1681526020018573ffffffffffffffffffffffffffffffffffffffff1681526020018481526020018373ffffffffffffffffffffffffffffffffffffffff168152602001828152602001428152506003600060045481526020019081526020016000206000820151816000015560208201518160010160006101000a81548173ffffffffffffffffffffffffffffffffffffffff021916908373ffffffffffffffffffffffffffffffffffffffff16021790555060408201518160020160006101000a81548173ffffffffffffffffffffffffffffffffffffffff021916908373ffffffffffffffffffffffffffffffffffffffff1602179055506060820151816003015560808201518160040160006101000a81548173ffffffffffffffffffffffffffffffffffffffff021916908373ffffffffffffffffffffffffffffffffffffffff16021790555060a0820151816005015560c082015181600601559050507f9d33853d43e3607b4cc01fdc78338ff2dca6fef7db9232dae6d3eb55fbc3b109600454338686868642604051808881526020018773ffffffffffffffffffffffffffffffffffffffff1673ffffffffffffffffffffffffffffffffffffffff1681526020018673ffffffffffffffffffffffffffffffffffffffff1673ffffffffffffffffffffffffffffffffffffffff1681526020018581526020018473ffffffffffffffffffffffffffffffffffffffff1673ffffffffffffffffffffffffffffffffffffffff16815260200183815260200182815260200197505050505050505060405180910390a150505050565b600073ffffffffffffffffffffffffffffffffffffffff168273ffffffffffffffffffffffffffffffffffffffff1614156110b757600080fd5b80600260008473ffffffffffffffffffffffffffffffffffffffff1673ffffffffffffffffffffffffffffffffffffffff16815260200190815260200160002060003373ffffffffffffffffffffffffffffffffffffffff1673ffffffffffffffffffffffffffffffffffffffff16815260200190815260200160002054101561114057600080fd5b6111cf81600260008573ffffffffffffffffffffffffffffffffffffffff1673ffffffffffffffffffffffffffffffffffffffff16815260200190815260200160002060003373ffffffffffffffffffffffffffffffffffffffff1673ffffffffffffffffffffffffffffffffffffffff1681526020019081526020016000205461158990919063ffffffff16565b600260008473ffffffffffffffffffffffffffffffffffffffff1673ffffffffffffffffffffffffffffffffffffffff16815260200190815260200160002060003373ffffffffffffffffffffffffffffffffffffffff1673ffffffffffffffffffffffffffffffffffffffff168152602001908152602001600020819055508173ffffffffffffffffffffffffffffffffffffffff1663a9059cbb33836040518363ffffffff1660e01b8152600401808373ffffffffffffffffffffffffffffffffffffffff1673ffffffffffffffffffffffffffffffffffffffff16815260200182815260200192505050602060405180830381600087803b1580156112d657600080fd5b505af11580156112ea573d6000803e3d6000fd5b505050506040513d602081101561130057600080fd5b810190808051906020019092919050505061131a57600080fd5b7ff341246adaac6f497bc2a656f546ab9e182111d630394f0c57c710a59a2cb567823383600260008773ffffffffffffffffffffffffffffffffffffffff1673ffffffffffffffffffffffffffffffffffffffff16815260200190815260200160002060003373ffffffffffffffffffffffffffffffffffffffff1673ffffffffffffffffffffffffffffffffffffffff16815260200190815260200160002054604051808573ffffffffffffffffffffffffffffffffffffffff1673ffffffffffffffffffffffffffffffffffffffff1681526020018473ffffffffffffffffffffffffffffffffffffffff1673ffffffffffffffffffffffffffffffffffffffff16815260200183815260200182815260200194505050505060405180910390a15050565b60036020528060005260406000206000915090508060000154908060010160009054906101000a900473ffffffffffffffffffffffffffffffffffffffff16908060020160009054906101000a900473ffffffffffffffffffffffffffffffffffffffff16908060030154908060040160009054906101000a900473ffffffffffffffffffffffffffffffffffffffff16908060050154908060060154905087565b6000600260008473ffffffffffffffffffffffffffffffffffffffff1673ffffffffffffffffffffffffffffffffffffffff16815260200190815260200160002060008373ffffffffffffffffffffffffffffffffffffffff1673ffffffffffffffffffffffffffffffffffffffff16815260200190815260200160002054905092915050565b60008082840190508381101561157f57600080fd5b8091505092915050565b60008282111561159857600080fd5b60008284039050809150509291505056fea265627a7a723158204b4f489142d0b2b96229d5578d6203cc878691f81c9261d1847ba206f657556e64736f6c63430005100032",
  "source": "pragma solidity ^0.5.0;\r\nimport \"openzeppelin-solidity/contracts/math/SafeMath.sol\";\r\nimport \"./Token.sol\";\r\n\r\ncontract Exchange {\r\n    using SafeMath for uint256;\r\n    address public feeAccount; //the account that recieves the exchange fees\r\n    uint256 public feePercent; //the fee percentage\r\n    address constant ETHER = address(0); //store Ether in tokens mapping with blank address\r\n    mapping(address => mapping(address => uint256)) public tokens;\r\n    mapping(uint256 => _Order) public orders; // Store the order\r\n    uint256 public orderCount;\r\n\r\n    // events\r\n    event Deposit(address token, address user, uint256 amount, uint256 balance);\r\n    event Withdraw(\r\n        address token,\r\n        address user,\r\n        uint256 amount,\r\n        uint256 balance\r\n    );\r\n    event Order(\r\n        uint256 id,\r\n        address user,\r\n        address tokenGet,\r\n        uint256 amountGet,\r\n        address tokenGive,\r\n        uint256 amountGive,\r\n        uint256 timestamp\r\n    );\r\n\r\n    // Model the order\r\n    struct _Order {\r\n        uint256 id;\r\n        address user;\r\n        address tokenGet;\r\n        uint256 amountGet;\r\n        address tokenGive;\r\n        uint256 amountGive;\r\n        uint256 timestamp;\r\n    }\r\n\r\n    // Add/Recieve the order to storage\r\n\r\n    constructor(address _feeAccount, uint256 _feePercent) public {\r\n        feeAccount = _feeAccount;\r\n        feePercent = _feePercent;\r\n    }\r\n\r\n    //fallback reverts if Ether is sent to this smart contract by mistake\r\n    function() external {\r\n        revert();\r\n    }\r\n\r\n    function depositEther() public payable {\r\n        tokens[ETHER][msg.sender] = tokens[ETHER][msg.sender].add(msg.value);\r\n        emit Deposit(ETHER, msg.sender, msg.value, tokens[ETHER][msg.sender]);\r\n    }\r\n\r\n    function withdrawEther(uint256 _amount) public {\r\n        require(tokens[ETHER][msg.sender] >= _amount); //make sure user has more ether than the tx requires\r\n        tokens[ETHER][msg.sender] = tokens[ETHER][msg.sender].sub(_amount);\r\n        msg.sender.transfer(_amount);\r\n        emit Withdraw(ETHER, msg.sender, _amount, tokens[ETHER][msg.sender]);\r\n    }\r\n\r\n    function depositToken(address _token, uint256 _amount) public {\r\n        require(_token != ETHER);\r\n        // which token are we depositing?\r\n        // How much?\r\n        require(Token(_token).transferFrom(msg.sender, address(this), _amount));\r\n        // Send tokens to this contract\r\n        tokens[_token][msg.sender] = tokens[_token][msg.sender].add(_amount);\r\n        // Track the balance\r\n        // Emit event\r\n        emit Deposit(_token, msg.sender, _amount, tokens[_token][msg.sender]);\r\n    }\r\n\r\n    function withdrawToken(address _token, uint256 _amount) public {\r\n        require(_token != address(0));\r\n        require(tokens[_token][msg.sender] >= _amount);\r\n        tokens[_token][msg.sender] = tokens[_token][msg.sender].sub(_amount);\r\n        require(Token(_token).transfer(msg.sender, _amount));\r\n        emit Withdraw(_token, msg.sender, _amount, tokens[_token][msg.sender]);\r\n    }\r\n\r\n    function balanceOf(address _token, address _user)\r\n        public\r\n        view\r\n        returns (uint256)\r\n    {\r\n        return tokens[_token][_user];\r\n    }\r\n\r\n    function makeOrder(\r\n        address _tokenGet,\r\n        uint256 _amountGet,\r\n        address _tokenGive,\r\n        uint256 _amountGive\r\n    ) public {\r\n        orderCount = orderCount.add(1);\r\n        orders[orderCount] = _Order(\r\n            orderCount,\r\n            msg.sender,\r\n            _tokenGet,\r\n            _amountGet,\r\n            _tokenGive,\r\n            _amountGive,\r\n            now\r\n        ); // now will make a timestamp with solidity\r\n        emit Order(\r\n            orderCount,\r\n            msg.sender,\r\n            _tokenGet,\r\n            _amountGet,\r\n            _tokenGive,\r\n            _amountGive,\r\n            now\r\n        );\r\n    }\r\n}\r\n/*\r\nTODO:\r\n    [x] Set the fee account\r\n    [x] Deposit Ether\r\n    [x] Withdrawl ether\r\n    [x] Deposit tokens\r\n    [x] Withdrawl tokens\r\n    [x] Check balances\r\n    [] Make Order\r\n    [] Cancel Order\r\n    [] Fill Order\r\n    [] Charge fees\r\n*/\r\n",
  "sourcePath": "C:/Users/gripn/dev/blockchain-developer-bootcamp/src/contracts/Exchange.sol",
  "compiler": {
    "name": "solc",
    "version": "0.5.16+commit.9c3226ce.Emscripten.clang"
  },
  "schemaVersion": "3.3.4",
  "updatedAt": "2021-03-30T05:03:12.213Z",
  "devdoc": {
    "methods": {}
  },
  "userdoc": {
    "methods": {}
  }
}